:100000000C9462000C948A000C948A000C948A0070
:100010000C948A000C948A000C948A000C948A0038
:100020000C948A000C948A000C948A000C948A0028
:100030000C948A000C948A000C948A000C948A0018
:100040000C94FC030C948A000C946C040C944604ED
:100050000C948A000C948A000C948A000C948A00F8
:100060000C948A000C948A000000000024002700F1
:100070002A0000000000250028002B0000000000DE
:1000800023002600290004040404040404040202DA
:100090000202020203030303030301020408102007
:1000A0004080010204081020010204081020000012
:1000B0000008000201000003040700000000000027
:1000C0000000140711241FBECFEFD8E0DEBFCDBF64
:1000D00012E0A0E0B1E0EEECF5E102C005900D9277
:1000E000AE33B107D9F722E0AEE3B2E001C01D9212
:1000F000A33FB207E1F710E0C2E6D0E004C02197C9
:10010000FE010E94E308C136D107C9F70E949E0490
:100110000C94E50A0C940000833081F028F48130BF
:1001200099F08230A1F008958730A9F08830B9F0B5
:100130008430D1F4809180008F7D03C08091800055
:100140008F7780938000089584B58F7702C084B53F
:100150008F7D84BD08958091B0008F7703C080911A
:10016000B0008F7D8093B0000895CF93DF93282F48
:1001700030E0F901E255FF4F8491F901E656FF4F57
:10018000D491F901EA57FF4FC491CC2391F081112A
:100190000E948C00EC2FF0E0EE0FFF1FE458FF4FA1
:1001A000A591B491EC91ED2381E090E021F480E001
:1001B00002C080E090E0DF91CF9108951F93CF932C
:1001C000DF93282F30E0F901E255FF4F8491F901C8
:1001D000E656FF4FD491F901EA57FF4FC491CC2363
:1001E000C1F0162F81110E948C00EC2FF0E0EE0F71
:1001F000FF1FEE58FF4FA591B4919FB7F8941111CE
:1002000004C08C91D095D82302C0EC91DE2BDC93F6
:100210009FBFDF91CF911F910895CF93DF9390E01F
:10022000FC01E656FF4F2491FC01EA57FF4F8491F1
:10023000882361F190E0880F991FFC01E859FF4F76
:10024000C591D491FC01EE58FF4FA591B491611175
:1002500009C09FB7F8948881209582238883EC9108
:100260002E230BC0623061F49FB7F8948881322F3F
:10027000309583238883EC912E2B2C939FBF06C04F
:100280008FB7F894E8812E2B28838FBFDF91CF9111
:1002900008953FB7F89480914E0290914F02A0913B
:1002A0005002B091510226B5A89B05C02F3F19F00E
:1002B0000196A11DB11D3FBFBA2FA92F982F8827E6
:1002C000820F911DA11DB11DBC01CD0142E0660F41
:1002D000771F881F991F4A95D1F708958F929F9293
:1002E000AF92BF92CF92DF92EF92FF926B017C01AF
:1002F0000E9449014B015C01C114D104E104F104E5
:10030000F1F00E944901DC01CB0188199909AA0981
:10031000BB09883E9340A105B10570F321E0C21AE4
:10032000D108E108F10888EE880E83E0981EA11C30
:10033000B11CC114D104E104F10419F7DDCFFF9021
:10034000EF90DF90CF90BF90AF909F908F900895E7
:10035000CF92DF92EF92FF920F931F93CF93DF9391
:100360006C017A018B01C0E0D0E0CE15DF0581F091
:10037000D8016D918D01D601ED91FC910190F08134
:10038000E02DC6010995892B11F02196EECF7E0153
:10039000C701DF91CF911F910F91FF90EF90DF90F8
:1003A000CF900895089580E090E00895FC01538D6A
:1003B000448D252F30E0842F90E0821B930B54173F
:1003C00010F0CF96089501970895FC01918D828DCC
:1003D000981761F0828DDF01A80FB11D5D968C9199
:1003E000928D9F5F9F73928F90E008958FEF9FEFA4
:1003F0000895FC01918D828D981731F0828DE80F60
:10040000F11D858D90E008958FEF9FEF0895FC0119
:10041000918D228D892F90E0805C9F4F821B9109E6
:100420008F739927089582E592E00E94070221E0E8
:10043000892B09F420E0822F0895FC01848DDF01CF
:10044000A80FB11DA35ABF4F2C91848D90E0019647
:100450008F739927848FA689B7892C93A089B18936
:100460008C91837080648C93938D848D981306C0D7
:100470000288F389E02D80818F7D80830895EF923B
:10048000FF920F931F93CF93DF93EC0181E0888F4E
:100490009B8D8C8D981305C0E889F989808185FD35
:1004A00026C0F62E0B8D10E00F5F1F4F0F73112724
:1004B000E02E8C8DE8120CC00FB607FCFACFE8894D
:1004C000F989808185FFF5CFCE010E941D02F1CF11
:1004D0008B8DFE01E80FF11DE35AFF4FF0829FB7AD
:1004E000F8940B8FEA89FB89808180620AC09FB7EC
:1004F000F894EE89FF896083E889F98980818370A7
:10050000806480839FBF81E090E0DF91CF911F9155
:100510000F91FF90EF900895CF93DF93EC01888DBA
:100520008823C9F0EA89FB89808185FD05C0A889F7
:10053000B9898C9186FD0FC00FB607FCF5CF80817D
:1005400085FFF2CFA889B9898C9185FFEDCFCE01C7
:100550000E941D02E7CFDF91CF91089580E090E0E7
:10056000892B29F00E94130281110C940000089538
:1005700042E050E068E271E082E592E00C94A8016C
:10058000CF93DF93009779F0FC0101900020E9F709
:100590003197AF01481B590BBC0182E592E00E94E4
:1005A000A801EC0102C0C0E0D0E00E94B8028C0FAC
:1005B0009D1FDF91CF9108958F929F92AF92BF922E
:1005C000CF92DF92EF92FF9280913F0261E08F5FC6
:1005D0000E94DE008BE291E00E94C00268EE73E0B0
:1005E00080E090E00E946E0180903F029090400277
:1005F000A0904102B0904202809145029091460243
:10060000A0914702B091480288169906AA06BB0637
:1006100061F5C12CD12C7601C3948C149D04AE04D9
:10062000BF0429F060E081E08C0D0E94DE008FEFB6
:10063000C81AD80AE80AF80A87E0C816D104E10403
:10064000F10459F761E081E0880D0E94DE0085E445
:1006500091E00E94C00268E873E180E090E00E94AF
:100660006E0181E080933E021BC060E081E0880D56
:100670000E94DE0086E691E00E94C00280913F0267
:1006800090914002A0914102B09142020197A109CC
:10069000B109880F991FFC01E050FF4F11821082B1
:1006A000FF90EF90DF90CF90BF90AF909F908F9092
:1006B0000895CF93DF93EC0188819981009711F021
:1006C0000E948109198218821D821C821B821A8253
:1006D000DF91CF9108950E94D00A0F931F93CF937B
:1006E000DF93EC0188819981009729F02A813B8171
:1006F0002617370788F48B016F5F7F4F0E940A0A25
:10070000009761F0998388831B830A832C813D8144
:10071000232B11F4FC01108281E001C080E0DF9105
:10072000CF911F910F910895EF92FF920F931F9316
:10073000CF93DF936115710511F480E01CC0411562
:100740005105C1F07B01EC018C819D818A01080F6C
:10075000191FB801CE010E946D03882371F328810F
:1007600039818C819D81B701820F931F0E94DE0A1F
:100770001D830C8381E0DF91CF911F910F91FF903A
:10078000EF900895CF93DF93EC016115710561F04F
:10079000FB0101900020E9F73197AF01461B570B91
:1007A0000E949403811103C0CE010E945903CE011F
:1007B000DF91CF910895EF92FF920F931F93CF9304
:1007C000DF93EC017B018A01BA010E946D03811164
:1007D00004C0CE010E94590307C01D830C83B701DA
:1007E000888199810E94DE0ACE01DF91CF911F910D
:1007F0000F91FF90EF9008951F920F920FB60F92F6
:1008000011242F933F938F939F93AF93BF93809126
:100810004A0290914B02A0914C02B0914D0230914E
:10082000490223E0230F2D3720F40196A11DB11DAD
:1008300005C026E8230F0296A11DB11D2093490291
:1008400080934A0290934B02A0934C02B0934D02C6
:1008500080914E0290914F02A0915002B0915102AE
:100860000196A11DB11D80934E0290934F02A0935B
:100870005002B0935102BF91AF919F918F913F91E0
:100880002F910F900FBE0F901F9018951F920F92EF
:100890000FB60F9211242F933F934F935F936F9353
:1008A0007F938F939F93AF93BF93EF93FF9382E5D3
:1008B00092E00E941D02FF91EF91BF91AF919F9135
:1008C0008F917F916F915F914F913F912F910F90F9
:1008D0000FBE0F901F9018951F920F920FB60F9298
:1008E00011242F938F939F93EF93FF93E0916202D4
:1008F000F09163028081E0916802F091690282FDCB
:1009000012C0908180916B028F5F8F7320916C0277
:10091000821751F0E0916B02F0E0EE5AFD4F958F97
:1009200080936B0201C08081FF91EF919F918F9125
:100930002F910F900FBE0F901F901895CF93DF93BC
:10094000CDB7DEB7AE970FB6F894DEBF0FBECDBF02
:10095000789484B5826084BD84B5816084BD85B59A
:10096000826085BD85B5816085BD80916E008160A6
:1009700080936E001092810080918100826080934C
:10098000810080918100816080938100809180004E
:100990008160809380008091B10084608093B10079
:1009A0008091B00081608093B00080917A00846073
:1009B00080937A0080917A00826080937A0080919F
:1009C0007A00816080937A0080917A0080688093B9
:1009D0007A001092C100E0916202F091630282E01D
:1009E0008083E0915E02F0915F021082E0916002EC
:1009F000F09161028FEC808310926A02E0916602AE
:100A0000F091670286E08083E0916402F0916502D4
:100A1000808180618083E0916402F0916502808131
:100A200088608083E0916402F09165028081806833
:100A30008083E0916402F091650280818F7D8083E4
:100A400080E480937C0080917A00806480937A00B7
:100A500080917A0086FDFCCF6091780080917900CA
:100A600070E0782B072E000C880B990B611571052F
:100A70008105910511F00E94DA0761E087E00E948C
:100A80000D0161E082E00E940D0161E083E00E94BF
:100A90000D0161E084E00E940D0161E085E00E94AB
:100AA0000D0161E086E00E940D0162E08AE00E9493
:100AB0000D0162E08BE00E940D0166E0862E912C14
:100AC000A12CB12C73E0272E312C412C512C32015A
:100AD00043948E010F5F1F4F8AE291E00E94C00293
:100AE00086E891E00E94C00253E0E52EF12C61E01F
:100AF00087E00E94DE0061E082E00E94DE0061E0AB
:100B000083E00E94DE0061E084E00E94DE0061E09C
:100B100085E00E94DE0061E086E00E94DE0068EC75
:100B200070E080E090E00E946E0160E087E00E944B
:100B3000DE0060E082E00E94DE0060E083E00E9470
:100B4000DE0060E084E00E94DE0060E085E00E945C
:100B5000DE0060E086E00E94DE0068EC70E080E08D
:100B600090E00E946E0181E0E81AF10809F0BFCF21
:100B70000E948C07A50194010E944908DC01CB0169
:100B80000196A11DB11D8093450290934602A0934A
:100B90004702B093480230924402209243024092AE
:100BA0003F025092400260924102709242021092C3
:100BB0003E02E1E0F0E0F0930101E093000182E009
:100BC00090E09093030180930201309205012092FE
:100BD0000401E4E0F0E0F0930701E093060185E012
:100BE00090E0909309018093080186E090E0909353
:100BF0000B0180930A0161E087E00E94DE0061E062
:100C000082E00E94DE0061E083E00E94DE0061E09D
:100C100084E00E94DE0061E085E00E94DE0061E089
:100C200086E00E94DE0080913E028111E3C0809147
:100C30004302909144021CA21BA21EA21DA218A650
:100C40001FA24AE0B8010E94E307F80101900020CA
:100C5000E9F73197AF01401B510BB801CE018396E4
:100C60000E94DB0360913F0270914002809141023B
:100C7000909142021AA619A61CA61BA61EA61DA686
:100C80002AE0A8010E94EE07F80101900020E9F790
:100C90003197AF01401B510BB801CE0189960E94DC
:100CA000DB031A8219821C821B821E821D824EE087
:100CB00050E062E072E0C8010E94DB034DA55EA532
:100CC00069A57AA5C8010E949403811103C0C801D7
:100CD0000E94590361E172E0C8010E94C2037C01D5
:100CE0004FA158A56BA17CA10E949403811103C060
:100CF000C7010E9459036DE172E0C7010E94C2035F
:100D0000FC01448155816081718182E592E00E94FD
:100D1000A8010E94B80289819A810E94810989A54F
:100D20009AA50E9481098BA19CA10E9481098AE059
:100D30000E94B500019799F480913E0281110FC085
:100D4000F0903F02F39460E08F2D0E94DE008BE074
:100D50000E94B500892B09F050C00E94DC0280E29D
:100D600092E00E94C00268EE73E080E090E00E9492
:100D70006E01C0903F02D0904002E0904102F0909E
:100D80004202D701C6010197A109B109880F991F35
:100D9000FC01E050FF4F80819181892B29F061E0B7
:100DA00081E08C0D0E94DE00FFEFCF1ADF0AEF0A10
:100DB000FF0A87E0C816D104E104F10421F4C12C34
:100DC000D12C7601C394D701C6010197A109B109BD
:100DD000880F991FFC01E050FF4F80819181892B82
:100DE00019F3C0923F02D0924002E0924102F09289
:100DF000420219CF0E94AE026FCE68EC70E080E034
:100E000090E00E946E0161E08F2D0E94DE008BE079
:100E10000E94B500892B09F4A0CF68EC70E080E057
:100E200090E00E946E0183CFE2E5F2E0138212822D
:100E300088EE93E0A0E0B0E084839583A683B78337
:100E40008AE191E09183808385EC90E095878487A7
:100E500084EC90E09787868780EC90E0918B808B84
:100E600081EC90E0938B828B82EC90E0958B848B6D
:100E700086EC90E0978B868B118E128E138E148EDB
:100E800008958F929F92AF92BF92CF92DF92EF928E
:100E9000FF92CF93DF93EC01688179818A819B81F6
:100EA000611571058105910521F464E279ED8BE509
:100EB00097E02DE133EF41E050E00E9449084901FD
:100EC0005A019B01AC01A7EAB1E40E9468086B01DA
:100ED0007C01ACEEB4EFA50194010E947608DC0120
:100EE000CB018C0D9D1DAE1DBF1DB7FF03C001972B
:100EF000A109B04888839983AA83BB83BC01CD0133
:100F00009F77DF91CF91FF90EF90DF90CF90BF90D0
:100F1000AF909F908F9008958F929F92AF92BF92C3
:100F2000CF92DF92EF92FF9260910C0170910D01D0
:100F300080910E0190910F01611571058105910558
:100F400021F464E279ED8BE597E02DE133EF41E0A8
:100F500050E00E94490849015A019B01AC01A7EAEF
:100F6000B1E40E9468086B017C01ACEEB4EFA5010E
:100F700094010E947608DC01CB018C0D9D1DAE1DF5
:100F8000BF1DB7FF03C00197A109B04880930C01B2
:100F900090930D01A0930E01B0930F01BC01CD0100
:100FA0009F77FF90EF90DF90CF90BF90AF909F9092
:100FB0008F90089560930C0170930D0180930E0142
:100FC00090930F010895BB274A3031F4992322F4FE
:100FD000BDE2909581959F4F0C942008BB272A3045
:100FE00051F4992342F4BDE29095809570956195F6
:100FF0007F4F8F4F9F4F0C94FE07BB27FA01A62F00
:101000006217710581059105330B30FB66F0AA2745
:10101000660F771F881F991FAA1FA21710F0A21B27
:1010200063953850A9F7A05DAA3308F0A95DA19394
:1010300036F7B111B1931082CA010C943908BB275D
:10104000FB015527AA27880F991FAA1FA41710F084
:10105000A41B83955051B9F7A05DAA3308F0A95D90
:10106000A193009779F7B111B1931192CB010C9430
:101070003908DC01FC01672F71917723E1F7329782
:1010800004C07C916D9370836291AE17BF07C8F363
:101090000895052E97FB1EF400940E94600857FDEA
:1010A00007D00E94B20807FC03D04EF40C946008ED
:1010B00050954095309521953F4F4F4F5F4F089584
:1010C00090958095709561957F4F8F4F9F4F0895B4
:1010D0000E94D408A59F900DB49F900DA49F800DF1
:1010E000911D11240895B7FF0C9468080E946808A8
:1010F000821B930B08952F923F924F925F926F92B3
:101100007F928F929F92AF92BF92CF92DF92EF9297
:10111000FF920F931F93CF93DF93CDB7DEB7CA1B18
:10112000DB0B0FB6F894DEBF0FBECDBF09942A8843
:10113000398848885F846E847D848C849B84AA84EB
:10114000B984C884DF80EE80FD800C811B81AA8178
:10115000B981CE0FD11D0FB6F894DEBF0FBECDBF43
:10116000ED010895A1E21A2EAA1BBB1BFD010DC0C3
:10117000AA1FBB1FEE1FFF1FA217B307E407F50747
:1011800020F0A21BB30BE40BF50B661F771F881F23
:10119000991F1A9469F760957095809590959B01B9
:1011A000AC01BD01CF010895A29FB001B39FC00162
:1011B000A39F700D811D1124911DB29F700D811D83
:1011C0001124911D0895EE0FFF1F0590F491E02D5D
:1011D00009940F931F93CF93DF938230910510F4FE
:1011E00082E090E0E091F102F091F20220E030E044
:1011F000A0E0B0E0309719F1408151810281138164
:1012000048175907C8F08417950769F4109731F00B
:1012100012960C93129713961C9327C00093F10219
:101220001093F20222C02115310519F0421753071D
:1012300018F49A01BD01EF01DF01F801DBCF2115A0
:101240003105F9F0281B390B2430310580F48A81EF
:101250009B816115710521F0FB019383828304C09A
:101260009093F2028093F102FE01329644C0FE0197
:10127000E20FF31F81939193225031093983288320
:101280003AC02091EF023091F002232B41F42091DB
:101290001201309113013093F0022093EF0220915C
:1012A0001001309111012115310541F42DB73EB7E0
:1012B0004091140150911501241B350BE091EF0270
:1012C000F091F002E217F307A0F42E1B3F0B281752
:1012D000390778F0AC014E5F5F4F2417350748F0AF
:1012E0004E0F5F1F5093F0024093EF028193919352
:1012F00002C0E0E0F0E0CF01DF91CF911F910F91AC
:101300000895CF93DF93009709F481C0FC013297D1
:1013100013821282A091F102B091F202109781F42F
:1013200020813181820F931F2091EF023091F002D2
:101330002817390751F5F093F002E093EF0267C0E8
:10134000ED0120E030E0CE17DF0740F44A815B81F9
:101350009E0141155105F1F0EA01F5CFD383C28317
:1013600040815181840F951FC817D90759F488818E
:101370009981840F951F0296918380838A819B8136
:10138000938382832115310529F4F093F202E093CF
:10139000F1023DC0E901FB83EA8349915991C40FF1
:1013A000D51FEC17FD0761F480819181840F951F93
:1013B0000296E90199838883828193819B838A8342
:1013C000E0E0F0E012968D919C911397009719F050
:1013D000FD01DC01F7CF8D919C9111979D012E5F4E
:1013E0003F4F820F931F2091EF023091F002281798
:1013F000390769F4309729F41092F2021092F10241
:1014000002C013821282B093F002A093EF02DF9128
:10141000CF910895A0E0B0E0E0E1FAE00C947F08FD
:10142000EC01009721F4CB010E94E908B4C0FC0153
:10143000E60FF71F9C0122503109E217F30708F469
:10144000A8C0D9010D911C91119706171707B0F08C
:101450000530110508F49BC0C8010497861797074B
:1014600008F495C002501109061B170B0193119344
:101470006D937C93CF010E94810989C05B01A01A02
:10148000B10A4C01800E911EA091F102B091F202BE
:10149000612C712CE12CF12C109709F446C08D9130
:1014A0009C911197A815B905B1F56C0142E0C40EE5
:1014B000D11CCA14DB0478F14C018A189B08640122
:1014C00042E0C40ED11C1296BC9012971396AC91B8
:1014D000B5E0CB16D10440F0B282A3839182808222
:1014E000D9016D937C9309C00E5F1F4F800F911F30
:1014F000F90191838083EB2DFA2FE114F10431F08F
:10150000D7011396FC93EE93129741C0F093F20229
:10151000E093F1023CC06816790608F43C017D01B5
:1015200012960D90BC91A02DB7CF8091EF029091B3
:10153000F00288169906E1F466167706C8F48091E1
:10154000100190911101009741F48DB79EB7409121
:10155000140150911501841B950BE817F907C8F485
:10156000F093F002E093EF02F901718360830FC002
:10157000CB010E94E9087C01009759F0A801BE0147
:101580000E94D50ACE010E948109C70104C0CE0184
:1015900002C080E090E0CDB7DEB7EEE00C949B088F
:1015A00081E090E0F8940C94E50AFB01DC0102C0B4
:1015B00001900D9241505040D8F70895FB01DC0195
:0E15C00001900D920020E1F70895F894FFCFFE
:1015CE0001000200030004000500060001000000F7
:1015DE000000F3028000000000003F02A801D601C7
:1015EE008C020702E501F9010D0A00537072617752
:1015FE00647A616D20706F64656A727A616E656778
:10160E006F2E2E2E0054616B206A65737421205A42
:10161E006E616C617AC58265C59B206D6F72646563
:10162E007263C49921004E696573746574792C20B8
:10163E00746F206E6965206A657374206D6F7264B5
:10164E00657263612100576974616A20646574650F
:10165E006B747977696521200A53797374656D20EF
:10166E007779636877796369C58220737A65C59BDC
:10167E0020706F74656E636A616C6E796368207337
:10168E007072617763C3B3772073747261737A6C0F
:10169E006977656A207A62726F646E692073707200
:1016AE007A6564206B696C6B75206D69657369C4AE
:1016BE009963792E200A506F776F647A656E69612F
:1016CE002100506F64656A727A616E79206E7220A5
:1016DE00002E2028537A616E73653A2000293A0055
:1016EE0050727A65C582C485637A616D20706F64AD
:0E16FE00656A727A616E65676F2E2E2E00008F
:107E0000112484B714BE81FFF0D085E080938100F7
:107E100082E08093C00088E18093C10086E0809377
:107E2000C20080E18093C4008EE0C9D0259A86E02C
:107E300020E33CEF91E0309385002093840096BBD3
:107E4000B09BFECF1D9AA8958150A9F7CC24DD24C4
:107E500088248394B5E0AB2EA1E19A2EF3E0BF2EE7
:107E6000A2D0813461F49FD0082FAFD0023811F036
:107E7000013811F484E001C083E08DD089C08234E0
:107E800011F484E103C0853419F485E0A6D080C0E4
:107E9000853579F488D0E82EFF2485D0082F10E0AE
:107EA000102F00270E291F29000F111F8ED06801E7
:107EB0006FC0863521F484E090D080E0DECF843638
:107EC00009F040C070D06FD0082F6DD080E0C81688
:107ED00080E7D80618F4F601B7BEE895C0E0D1E017
:107EE00062D089930C17E1F7F0E0CF16F0E7DF06D8
:107EF00018F0F601B7BEE89568D007B600FCFDCFD4
:107F0000A601A0E0B1E02C9130E011968C91119780
:107F100090E0982F8827822B932B1296FA010C0160
:107F200087BEE89511244E5F5F4FF1E0A038BF0790
:107F300051F7F601A7BEE89507B600FCFDCF97BE46
:107F4000E89526C08437B1F42ED02DD0F82E2BD052
:107F50003CD0F601EF2C8F010F5F1F4F84911BD097
:107F6000EA94F801C1F70894C11CD11CFA94CF0C13
:107F7000D11C0EC0853739F428D08EE10CD085E9AC
:107F80000AD08FE07ACF813511F488E018D01DD067
:107F900080E101D065CF982F8091C00085FFFCCF94
:107FA0009093C60008958091C00087FFFCCF809118
:107FB000C00084FD01C0A8958091C6000895E0E648
:107FC000F0E098E1908380830895EDDF803219F02E
:107FD00088E0F5DFFFCF84E1DECF1F93182FE3DFCA
:107FE0001150E9F7F2DF1F91089580E0E8DFEE27F6
:047FF000FF270994CA
:027FFE00040479
:0400000300007E007B
:00000001FF
